{
  "contractName": "VinCarContract",
  "abi": [
    {
      "constant": false,
      "inputs": [
        {
          "name": "vin",
          "type": "string"
        },
        {
          "name": "carType",
          "type": "uint256"
        },
        {
          "name": "info",
          "type": "string"
        }
      ],
      "name": "addVin",
      "outputs": [],
      "payable": false,
      "stateMutability": "nonpayable",
      "type": "function"
    },
    {
      "constant": true,
      "inputs": [
        {
          "name": "_address",
          "type": "address"
        }
      ],
      "name": "isAllowedAddressToContract",
      "outputs": [
        {
          "name": "",
          "type": "bool"
        }
      ],
      "payable": false,
      "stateMutability": "view",
      "type": "function"
    },
    {
      "constant": true,
      "inputs": [],
      "name": "getAccessTime",
      "outputs": [
        {
          "name": "",
          "type": "uint256"
        }
      ],
      "payable": false,
      "stateMutability": "view",
      "type": "function"
    },
    {
      "constant": false,
      "inputs": [
        {
          "name": "vin",
          "type": "string"
        },
        {
          "name": "carType",
          "type": "uint256"
        },
        {
          "name": "recordType",
          "type": "uint256"
        },
        {
          "name": "date",
          "type": "uint256"
        },
        {
          "name": "milage",
          "type": "uint256"
        },
        {
          "name": "comment",
          "type": "string"
        }
      ],
      "name": "addRecord",
      "outputs": [],
      "payable": false,
      "stateMutability": "nonpayable",
      "type": "function"
    },
    {
      "constant": true,
      "inputs": [
        {
          "name": "vin",
          "type": "string"
        }
      ],
      "name": "getVinDataSize",
      "outputs": [
        {
          "name": "",
          "type": "uint256"
        },
        {
          "name": "",
          "type": "uint256"
        },
        {
          "name": "",
          "type": "string"
        }
      ],
      "payable": false,
      "stateMutability": "view",
      "type": "function"
    },
    {
      "constant": true,
      "inputs": [
        {
          "name": "vin",
          "type": "string"
        },
        {
          "name": "index",
          "type": "uint256"
        }
      ],
      "name": "getVinRecor",
      "outputs": [
        {
          "name": "",
          "type": "uint256"
        },
        {
          "name": "",
          "type": "uint256"
        },
        {
          "name": "",
          "type": "uint256"
        },
        {
          "name": "",
          "type": "string"
        }
      ],
      "payable": false,
      "stateMutability": "view",
      "type": "function"
    },
    {
      "constant": false,
      "inputs": [
        {
          "name": "_address",
          "type": "address"
        }
      ],
      "name": "disallowAddressToContract",
      "outputs": [],
      "payable": false,
      "stateMutability": "nonpayable",
      "type": "function"
    },
    {
      "constant": true,
      "inputs": [],
      "name": "getOwner",
      "outputs": [
        {
          "name": "",
          "type": "address"
        }
      ],
      "payable": false,
      "stateMutability": "view",
      "type": "function"
    },
    {
      "constant": true,
      "inputs": [
        {
          "name": "_address",
          "type": "address"
        }
      ],
      "name": "isAllowedToView",
      "outputs": [
        {
          "name": "",
          "type": "bool"
        }
      ],
      "payable": false,
      "stateMutability": "view",
      "type": "function"
    },
    {
      "constant": false,
      "inputs": [
        {
          "name": "_address",
          "type": "address"
        }
      ],
      "name": "allowAddressToContract",
      "outputs": [],
      "payable": false,
      "stateMutability": "nonpayable",
      "type": "function"
    },
    {
      "constant": false,
      "inputs": [
        {
          "name": "amount",
          "type": "uint256"
        },
        {
          "name": "receiver",
          "type": "address"
        }
      ],
      "name": "sendFunds",
      "outputs": [
        {
          "name": "",
          "type": "uint256"
        }
      ],
      "payable": false,
      "stateMutability": "nonpayable",
      "type": "function"
    },
    {
      "constant": false,
      "inputs": [],
      "name": "getAccess",
      "outputs": [],
      "payable": true,
      "stateMutability": "payable",
      "type": "function"
    },
    {
      "inputs": [],
      "payable": false,
      "stateMutability": "nonpayable",
      "type": "constructor"
    }
  ],
  "bytecode": "0x6060604052341561000f57600080fd5b336000806101000a81548173ffffffffffffffffffffffffffffffffffffffff021916908373ffffffffffffffffffffffffffffffffffffffff1602179055506114d98061005e6000396000f3006060604052600436106100ba576000357c0100000000000000000000000000000000000000000000000000000000900463ffffffff16806312129ad9146100bf57806313285fd81461016857806323d41e47146101b957806353d7cb48146101e257806358a6ed84146102a65780635f282c891461038a57806375edbe671461047e578063893d20e8146104b757806395b646291461050c5780639dc718971461055d578063b268677414610596578063f7ca8431146105ec575b600080fd5b34156100ca57600080fd5b610166600480803590602001908201803590602001908080601f0160208091040260200160405190810160405280939291908181526020018383808284378201915050505050509190803590602001909190803590602001908201803590602001908080601f016020809104026020016040519081016040528093929190818152602001838380828437820191505050505050919050506105f6565b005b341561017357600080fd5b61019f600480803573ffffffffffffffffffffffffffffffffffffffff16906020019091905050610700565b604051808215151515815260200191505060405180910390f35b34156101c457600080fd5b6101cc6107b0565b6040518082815260200191505060405180910390f35b34156101ed57600080fd5b6102a4600480803590602001908201803590602001908080601f0160208091040260200160405190810160405280939291908181526020018383808284378201915050505050509190803590602001909190803590602001909190803590602001909190803590602001909190803590602001908201803590602001908080601f016020809104026020016040519081016040528093929190818152602001838380828437820191505050505050919050506107fc565b005b34156102b157600080fd5b610301600480803590602001908201803590602001908080601f01602080910402602001604051908101604052809392919081815260200183838082843782019150505050505091905050610987565b6040518084815260200183815260200180602001828103825283818151815260200191508051906020019080838360005b8381101561034d578082015181840152602081019050610332565b50505050905090810190601f16801561037a5780820380516001836020036101000a031916815260200191505b5094505050505060405180910390f35b341561039557600080fd5b6103ee600480803590602001908201803590602001908080601f01602080910402602001604051908101604052809392919081815260200183838082843782019150505050505091908035906020019091905050610c14565b6040518085815260200184815260200183815260200180602001828103825283818151815260200191508051906020019080838360005b83811015610440578082015181840152602081019050610425565b50505050905090810190601f16801561046d5780820380516001836020036101000a031916815260200191505b509550505050505060405180910390f35b341561048957600080fd5b6104b5600480803573ffffffffffffffffffffffffffffffffffffffff16906020019091905050610e39565b005b34156104c257600080fd5b6104ca610eed565b604051808273ffffffffffffffffffffffffffffffffffffffff1673ffffffffffffffffffffffffffffffffffffffff16815260200191505060405180910390f35b341561051757600080fd5b610543600480803573ffffffffffffffffffffffffffffffffffffffff16906020019091905050610f6c565b604051808215151515815260200191505060405180910390f35b341561056857600080fd5b610594600480803573ffffffffffffffffffffffffffffffffffffffff1690602001909190505061101a565b005b34156105a157600080fd5b6105d6600480803590602001909190803573ffffffffffffffffffffffffffffffffffffffff169060200190919050506110ce565b6040518082815260200191505060405180910390f35b6105f46111ac565b005b6105ff33610700565b156106fb57806001846040518082805190602001908083835b60208310151561063d5780518252602082019150602081019050602083039250610618565b6001836020036101000a0380198251168184511680821785525050505050509050019150509081526020016040518091039020600001908051906020019061068692919061122e565b50816001846040518082805190602001908083835b6020831015156106c0578051825260208201915060208101905060208303925061069b565b6001836020036101000a0380198251168184511680821785525050505050509050019150509081526020016040518091039020600101819055505b505050565b6000600260008373ffffffffffffffffffffffffffffffffffffffff1673ffffffffffffffffffffffffffffffffffffffff16815260200190815260200160002060000160009054906101000a900460ff16806107a957506000809054906101000a900473ffffffffffffffffffffffffffffffffffffffff1673ffffffffffffffffffffffffffffffffffffffff168273ffffffffffffffffffffffffffffffffffffffff16145b9050919050565b600042600360003373ffffffffffffffffffffffffffffffffffffffff1673ffffffffffffffffffffffffffffffffffffffff1681526020019081526020016000206000015403905090565b6108046112ae565b61080d33610700565b1561097e57608060405190810160405280838152602001868152602001858152602001848152509050856001886040518082805190602001908083835b60208310151561086f578051825260208201915060208101905060208303925061084a565b6001836020036101000a0380198251168184511680821785525050505050509050019150509081526020016040518091039020600101819055506001876040518082805190602001908083835b6020831015156108e157805182526020820191506020810190506020830392506108bc565b6001836020036101000a0380198251168184511680821785525050505050509050019150509081526020016040518091039020600201805480600101828161092991906112dd565b91600052602060002090600402016000839091909150600082015181600001908051906020019061095b92919061130f565b506020820151816001015560408201518160020155606082015181600301555050505b50505050505050565b60008061099261138f565b61099a6113a3565b6109a333610f6c565b15610c0b576001856040518082805190602001908083835b6020831015156109e057805182526020820191506020810190506020830392506109bb565b6001836020036101000a038019825116818451168082178552505050505050905001915050908152602001604051809103902060606040519081016040529081600082018054600181600116156101000203166002900480601f016020809104026020016040519081016040528092919081815260200182805460018160011615610100020316600290048015610ab85780601f10610a8d57610100808354040283529160200191610ab8565b820191906000526020600020905b815481529060010190602001808311610a9b57829003601f168201915b505050505081526020016001820154815260200160028201805480602002602001604051908101604052809291908181526020016000905b82821015610be3578382906000526020600020906004020160806040519081016040529081600082018054600181600116156101000203166002900480601f016020809104026020016040519081016040528092919081815260200182805460018160011615610100020316600290048015610bad5780601f10610b8257610100808354040283529160200191610bad565b820191906000526020600020905b815481529060010190602001808311610b9057829003601f168201915b50505050508152602001600182015481526020016002820154815260200160038201548152505081526020019060010190610af0565b5050505081525050905080602001518160400151518260000151809050935093509350610c0c565b5b509193909250565b6000806000610c2161138f565b610c296112ae565b610c3233610f6c565b8015610cae5750856001886040518082805190602001908083835b602083101515610c725780518252602082019150602081019050602083039250610c4d565b6001836020036101000a038019825116818451168082178552505050505050905001915050908152602001604051809103902060020180549050115b15610e2e576001876040518082805190602001908083835b602083101515610ceb5780518252602082019150602081019050602083039250610cc6565b6001836020036101000a038019825116818451168082178552505050505050905001915050908152602001604051809103902060020186815481101515610d2e57fe5b906000526020600020906004020160806040519081016040529081600082018054600181600116156101000203166002900480601f016020809104026020016040519081016040528092919081815260200182805460018160011615610100020316600290048015610de15780601f10610db657610100808354040283529160200191610de1565b820191906000526020600020905b815481529060010190602001808311610dc457829003601f168201915b505050505081526020016001820154815260200160028201548152602001600382015481525050905080602001518160400151826060015183600001518090509450945094509450610e2f565b5b5092959194509250565b6000809054906101000a900473ffffffffffffffffffffffffffffffffffffffff1673ffffffffffffffffffffffffffffffffffffffff163373ffffffffffffffffffffffffffffffffffffffff161415610eea576000600260008373ffffffffffffffffffffffffffffffffffffffff1673ffffffffffffffffffffffffffffffffffffffff16815260200190815260200160002060000160006101000a81548160ff0219169083151502179055505b50565b60008060009054906101000a900473ffffffffffffffffffffffffffffffffffffffff1673ffffffffffffffffffffffffffffffffffffffff163373ffffffffffffffffffffffffffffffffffffffff161415610f69576000809054906101000a900473ffffffffffffffffffffffffffffffffffffffff1690505b90565b600080600360008473ffffffffffffffffffffffffffffffffffffffff1673ffffffffffffffffffffffffffffffffffffffff168152602001908152602001600020600001541180156110035750600042600360008573ffffffffffffffffffffffffffffffffffffffff1673ffffffffffffffffffffffffffffffffffffffff1681526020019081526020016000206000015403135b80611013575061101282610700565b5b9050919050565b6000809054906101000a900473ffffffffffffffffffffffffffffffffffffffff1673ffffffffffffffffffffffffffffffffffffffff163373ffffffffffffffffffffffffffffffffffffffff1614156110cb576001600260008373ffffffffffffffffffffffffffffffffffffffff1673ffffffffffffffffffffffffffffffffffffffff16815260200190815260200160002060000160006101000a81548160ff0219169083151502179055505b50565b60008060009054906101000a900473ffffffffffffffffffffffffffffffffffffffff1673ffffffffffffffffffffffffffffffffffffffff163373ffffffffffffffffffffffffffffffffffffffff1614156111a657823073ffffffffffffffffffffffffffffffffffffffff16311015156111a4578173ffffffffffffffffffffffffffffffffffffffff166108fc849081150290604051600060405180830381858888f19350505050151561118557600080fd5b3073ffffffffffffffffffffffffffffffffffffffff163190506111a5565b5b5b92915050565b6111b533610700565b806111c7575066038d7ea4c680003410155b1561122c5766038d7ea4c6800034610258028115156111e257fe5b044201600360003373ffffffffffffffffffffffffffffffffffffffff1673ffffffffffffffffffffffffffffffffffffffff168152602001908152602001600020600001819055505b565b828054600181600116156101000203166002900490600052602060002090601f016020900481019282601f1061126f57805160ff191683800117855561129d565b8280016001018555821561129d579182015b8281111561129c578251825591602001919060010190611281565b5b5090506112aa91906113d1565b5090565b6080604051908101604052806112c26113f6565b81526020016000815260200160008152602001600081525090565b81548183558181151161130a57600402816004028360005260206000209182019101611309919061140a565b5b505050565b828054600181600116156101000203166002900490600052602060002090601f016020900481019282601f1061135057805160ff191683800117855561137e565b8280016001018555821561137e579182015b8281111561137d578251825591602001919060010190611362565b5b50905061138b91906113d1565b5090565b602060405190810160405280600081525090565b6060604051908101604052806113b76113f6565b8152602001600081526020016113cb611451565b81525090565b6113f391905b808211156113ef5760008160009055506001016113d7565b5090565b90565b602060405190810160405280600081525090565b61144e91905b8082111561144a57600080820160006114299190611465565b60018201600090556002820160009055600382016000905550600401611410565b5090565b90565b602060405190810160405280600081525090565b50805460018160011615610100020316600290046000825580601f1061148b57506114aa565b601f0160209004906000526020600020908101906114a991906113d1565b5b505600a165627a7a72305820804eba85d18faa25c8b8ba6da1ca60aa0cb1fbf32d827a31a3fc6e0af9b48ba80029",
  "source": "pragma solidity ^0.4.17;\n\ncontract VinCarContract {\n\n    struct RecordStruct {\n        string comment;\n        uint recordType;\n        uint date;\n        uint milage;\n    }\n\n    struct VinStruct {\n        string info;\n        uint carType;\n        RecordStruct[] records;\n    }\n    \n    struct ContractorStruct {\n        bool allowed;\n    }\n    \n    struct AccessKey {\n        uint timeStart;\n    }\n\n    uint constant _amount = 1000000000000000;\n    address _owner;\n    mapping(string =>  VinStruct) _vinStruct;\n    mapping(address => ContractorStruct) _isAllowedToContract;\n    mapping(address => AccessKey) _isAllowedToView;\n    \n    function VinCarContract() public {\n        _owner = msg.sender;\n    }\n    \n    modifier restricted() {\n        if (msg.sender == _owner) _;\n    }\n    \n    function getOwner() public restricted constant returns (address) {\n        return _owner;\n    }\n    \n    function sendFunds(uint amount, address receiver) public restricted returns (uint) {\n        if(this.balance >= amount) {\n            receiver.transfer(amount);\n            return this.balance;\n        }\n    }\n    \n    function allowAddressToContract(address _address)  public restricted {\n        _isAllowedToContract[_address].allowed = true;\n    }\n    \n    function disallowAddressToContract(address _address)  public restricted {\n        _isAllowedToContract[_address].allowed = false;\n    }\n\n    function isAllowedAddressToContract(address _address) public constant returns (bool) {\n        return _isAllowedToContract[_address].allowed || _address == _owner;\n    }\n    \n    function isAllowedToView(address _address) public constant returns (bool) {\n        return (_isAllowedToView[_address].timeStart > 0\n                && int(_isAllowedToView[_address].timeStart - now) > 0)\n            || isAllowedAddressToContract(_address); \n    }\n    \n    function getAccess() public payable {\n        if (isAllowedAddressToContract(msg.sender)\n            || msg.value >= _amount){\n            _isAllowedToView[msg.sender].timeStart = now + 10 minutes * uint(msg.value) / uint(_amount);\n        }\n    }\n    \n    function getAccessTime() public constant returns (uint){\n        return _isAllowedToView[msg.sender].timeStart - now;\n    }\n    \n    function addVin(string vin, uint carType, string info) public {\n        if (isAllowedAddressToContract(msg.sender)){\n            _vinStruct[vin].info = info;\n            _vinStruct[vin].carType = carType;\n        }\n    }\n    \n    function addRecord(string vin, uint carType, uint recordType, uint date, uint milage, string comment) public {\n        if (isAllowedAddressToContract(msg.sender)){\n            RecordStruct memory record = RecordStruct(comment, recordType, date, milage);\n            _vinStruct[vin].carType = carType;\n            _vinStruct[vin].records.push(record);\n        }\n    }\n    \n    function getVinDataSize(string vin) public constant returns (uint, uint, string){\n        if (isAllowedToView(msg.sender)){\n            VinStruct memory vinStruct = _vinStruct[vin];\n            return (vinStruct.carType, vinStruct.records.length, vinStruct.info);\n        }\n    }\n    \n    function getVinRecor(string vin, uint index) public constant returns (uint, uint, uint, string){\n        if (isAllowedToView(msg.sender) && _vinStruct[vin].records.length > index){\n            RecordStruct memory record = _vinStruct[vin].records[index];\n            return (record.recordType, record.date, record.milage, record.comment);\n        }\n    }\n    \n}",
  "sourcePath": "/Users/igarin/tmp/ethereum/pet-shop-dapp-master/contracts/VinCarContract.sol",
  "compiler": {
    "name": "solc",
    "version": "0.4.18+commit.9cf6e910.Emscripten.clang"
  },
  "schemaVersion": "1.0.1",
  "updatedAt": "2018-02-02T14:35:01.835Z"
}